:020000040000FA
:100000000C945E000C9486000C9486000C94860080
:100010000C9486000C9486000C9486000C94860048
:100020000C9486000C9486000C9486000C94860038
:100030000C9486000C9486000C9486000C94860028
:100040000C94D4020C9486000C94A2020C947C02B2
:100050000C9486000C9486000C9486000C94860008
:100060000C9486000C948600000000080002010039
:100070000003040700000000000000000000000072
:10008000250028002B0000000000240027002A0083
:10009000040404040404040402020202020203032E
:1000A0000303030301020408102040800102040836
:1000B00010200102040810201E03C60511241FBED3
:1000C000CFEFD8E0DEBFCDBF21E0AAE1B1E001C0B3
:1000D0001D92AC3CB207E1F711E0A0E0B1E0E6E12F
:1000E000F0E102C005900D92AA31B107D9F710E0F6
:1000F000CDE5D0E004C02197FE010E940606CC3574
:10010000D107C9F70E9492030C94FE070C940000DB
:100110002091C6013091C7018217930738F42091CE
:10012000C2013091C3012115310529F41092240137
:1001300084E291E00895820F931F0895AF92BF92D9
:10014000CF92DF92EF92FF920F931F93CF93DF93A3
:100150006C017B018B01040F151FEB015E01AE18D2
:10016000BF08C017D10759F06991D601ED91FC91F4
:100170000190F081E02DC6010995892B79F7C50121
:10018000DF91CF911F910F91FF90EF90DF90CF9073
:10019000BF90AF900895FC01538D448D252F30E022
:1001A000842F90E0821B930B541710F0CF96089584
:1001B00001970895FC01918D828D981761F0A28DB1
:1001C000AE0FBF2FB11D5D968C91928D9F5F9F7377
:1001D000928F90E008958FEF9FEF0895FC01918D2D
:1001E000828D981731F0828DE80FF11D858D90E09A
:1001F00008958FEF9FEF0895FC01918D228D892F37
:1002000090E0805C9F4F821B91098F73992708951E
:1002100085E291E00E94FC0021E0892B09F420E0B6
:10022000822F089580E090E0892B29F00E94080138
:1002300081110C9400000895FC01A48DA80FB92F22
:10024000B11DA35ABF4F2C91848D90E001968F73FE
:100250009927848FA689B7892C93A089B1898C911D
:10026000837080648C93938D848D981306C002886C
:10027000F389E02D80818F7D80830895EF92FF9236
:100280000F931F93CF93DF93EC0181E0888F9B8DB9
:100290008C8D98131AC0E889F989808185FF15C073
:1002A0009FB7F894EE89FF896083E889F989808196
:1002B0008370806480839FBF81E090E0DF91CF9165
:1002C0001F910F91FF90EF900895F62E0B8D10E087
:1002D0000F5F1F4F0F731127E02E8C8D8E110CC0F6
:1002E0000FB607FCFACFE889F989808185FFF5CF41
:1002F000CE010E941C01F1CFEB8DEC0FFD2FF11D03
:10030000E35AFF4FF0829FB7F8940B8FEA89FB897D
:1003100080818062CFCFCF93DF93EC01888D8823DB
:10032000B9F0AA89BB89E889F9898C9185FD03C058
:10033000808186FD0DC00FB607FCF7CF8C9185FF3D
:10034000F2CF808185FFEDCFCE010E941C01E9CF65
:10035000DF91CF91089590E0FC01E859FF4F24917F
:10036000FC01EC55FF4F3491FC01E057FF4FE49145
:10037000EE23C9F0222339F0233001F1A8F4213013
:1003800019F1223029F1F0E0EE0FFF1FE458FF4F82
:10039000A591B4918FB7F894EC91611126C0309576
:1003A0003E233C938FBF08952730A9F02830C9F031
:1003B000243049F7809180008F7D03C080918000B8
:1003C0008F7780938000DFCF84B58F7784BDDBCFBC
:1003D00084B58F7DFBCF8091B0008F778093B00084
:1003E000D2CF8091B0008F7DF9CF3E2BDACF3FB7CF
:1003F000F89480911F0190912001A0912101B0916A
:10040000220126B5A89B05C02F3F19F00196A11D1A
:10041000B11D3FBFBA2FA92F982F8827BC01CD014E
:10042000620F711D811D911D42E0660F771F881FAD
:10043000991F4A95D1F708958F929F92AF92BF92DC
:10044000CF92DF92EF92FF924B015C010E94F70185
:100450006B017C010E94F7016C197D098E099F09CF
:10046000683E734081059105A8F321E0821A910846
:10047000A108B10888EEC80E83E0D81EE11CF11C6B
:1004800081149104A104B10429F7FF90EF90DF904B
:10049000CF90BF90AF909F908F900895CF93DF93B0
:1004A000EC018091C2019091C301009759F0209115
:1004B000C4013091C5012C173D0720F081E0DF9188
:1004C000CF910895BE016F5F7F4F0E943107009763
:1004D00089F09093C3018093C201D093C501C0936A
:1004E000C4012091C6013091C701232B39F7FC01CB
:1004F0001082E4CF80E0E3CF1F920F920FB60F92ED
:1005000011242F933F934F935F936F937F938F9318
:100510009F93AF93BF93EF93FF9385E291E00E9487
:100520001C01FF91EF91BF91AF919F918F917F91AE
:100530006F915F914F913F912F910F900FBE0F9050
:100540001F9018951F920F920FB60F9211242F93A0
:100550008F939F93EF93FF93E0913501F0913601D4
:100560008081E0913B01F0913C0182FD1BC09081B4
:1005700080913E018F5F8F7320913F01821741F080
:10058000E0913E01F0E0EB5DFE4F958F80933E01E0
:10059000FF91EF919F918F912F910F900FBE0F9030
:1005A0001F9018958081F4CF1F920F920FB60F9273
:1005B00011242F933F938F939F93AF93BF93809179
:1005C0001B0190911C01A0911D01B0911E01309161
:1005D0001A0123E0230F2D3758F50196A11DB11DF7
:1005E00020931A0180931B0190931C01A0931D017D
:1005F000B0931E0180911F0190912001A0912101D3
:10060000B09122010196A11DB11D80931F0190930D
:100610002001A0932101B0932201BF91AF919F913E
:100620008F913F912F910F900FBE0F901F901895B3
:1006300026E8230F0296A11DB11DD2CF10922801EA
:100640001092270188EE93E0A0E0B0E080932901AA
:1006500090932A01A0932B01B0932C018AE091E0A2
:10066000909326018093250185EC90E090933201D0
:100670008093310184EC90E09093340180933301B6
:1006800080EC90E0909336018093350181EC90E00E
:10069000909338018093370182EC90E090933A0177
:1006A0008093390186EC90E090933C0180933B016C
:1006B00010923E0110923F011092400110924101B0
:1006C0001092C3011092C2011092C5011092C40190
:1006D0001092C7011092C60190E080E00E944E0285
:1006E0002091C2013091C301811113C02115310540
:1006F00019F0C9010E94A8061092C3011092C2010C
:100700001092C7011092C6011092C5011092C40147
:1007100008951092C7011092C60168E171E0C90105
:100720000C94F707CF93DF9300D0CDB7DEB7789462
:1007300084B5826084BD84B5816084BD85B58260E6
:1007400085BD85B5816085BD80916E008160809397
:100750006E00109281008091810082608093810000
:100760008091810081608093810080918000816010
:10077000809380008091B10084608093B10080916B
:10078000B00081608093B00080917A008460809393
:100790007A0080917A00826080937A0080917A005A
:1007A000816080937A0080917A00806880937A00DB
:1007B0001092C100E0913501F091360182E0808312
:1007C000E0913101F09132011082E0913301F0911A
:1007D00034018FEC808310923D01E0913901F0915A
:1007E0003A0186E08083E0913701F0913801808101
:1007F00080618083E0913701F091380180818860C9
:100800008083E0913701F091380180818068808396
:10081000E0913701F091380180818F7D808322E063
:1008200030E0F901EC55FF4F4491F901E057FF4FDB
:100830008491882399F090E0880F991FFC01EA5772
:10084000FF4FA591B491FC01E458FF4F859194911D
:100850008FB7F894EC91E42BEC938FBF2F5F3F4F51
:100860002E303105F1F680E0C82E80E0D82E85E2EA
:1008700091E00E94FC00892B09F472C185E291E0AD
:100880000E94DA00F82E8093230162E070E080E09D
:1008900090E00E941C02F9821A820091C601109118
:1008A000C7010F5F1F4FC8010E944E02882399F0B5
:1008B0002091C2013091C3018091C6019091C7017E
:1008C000BE016F5F7F4F820F931F0E94F707109347
:1008D000C7010093C6018AE0F81242C190E080E0AF
:1008E0000E948800FC018081813621F461E082E071
:1008F0000E94AB0190E080E00E948800FC018081B2
:100900008A3221F460E082E00E94AB0181E090E055
:100910000E948800FC018081823621F461E083E03E
:100920000E94AB0181E090E00E948800FC01808180
:100930008A3221F460E083E00E94AB0182E090E023
:100940000E948800FC018081833621F461E084E00C
:100950000E94AB0182E090E00E948800FC0180814F
:100960008A3221F460E084E00E94AB0183E090E0F1
:100970000E948800FC018081843621F461E085E0DA
:100980000E94AB0183E090E00E948800FC0180811E
:100990008A3221F460E085E00E94AB0184E090E0BF
:1009A0000E948800FC018081853621F461E086E0A8
:1009B0000E94AB0184E090E00E948800FC018081ED
:1009C0008A3221F460E086E00E94AB0185E090E08D
:1009D0000E948800FC018081863621F461E087E076
:1009E0000E94AB0185E090E00E948800FC018081BC
:1009F0008A3221F460E087E00E94AB0186E090E05B
:100A00000E948800FC018081873621F461E088E043
:100A10000E94AB0186E090E00E948800FC0180818A
:100A20008A3221F460E088E00E94AB0187E090E028
:100A30000E948800FC018081883621F461E089E011
:100A40000E94AB0187E090E00E948800FC01808159
:100A50008A3221F460E089E00E94AB0188E090E0F6
:100A60000E948800FC018081893621F461E08AE0DF
:100A70000E94AB0188E090E00E948800FC01808128
:100A80008A3221F460E08AE00E94AB0189E090E0C4
:100A90000E948800FC0180818A3621F461E08BE0AD
:100AA0000E94AB0189E090E00E948800FC018081F7
:100AB0008A3221F460E08BE00E94AB018AE090E092
:100AC0000E948800FC0180818B3621F461E08CE07B
:100AD0000E94AB018AE090E00E948800FC018081C6
:100AE0008A3221F460E08CE00E94AB018BE090E060
:100AF0000E948800FC0180818C3621F461E08DE049
:100B00000E94AB018BE090E00E948800FC01808194
:100B10008A3221F460E08DE00E94AB0190E080E039
:100B20000E944E022091C2013091C301811124C064
:100B30002115310519F0C9010E94A8061092C301C0
:100B40001092C2011092C7011092C6011092C50105
:100B50001092C40162E370E080E090E00E941C0209
:100B6000C114D10409F483CE0E940801882309F43A
:100B70007ECE0E9400007BCE1092C7011092C6016B
:100B800068E171E0C9010E94F707E4CF8091C201DA
:100B90009091C301009711F00C94A80608952F922C
:100BA0003F924F925F926F927F928F929F92AF92FD
:100BB000BF92CF92DF92EF92FF920F931F93CF934A
:100BC000DF93CDB7DEB7CA1BDB0B0FB6F894DEBFE1
:100BD0000FBECDBF09942A88398848885F846E8407
:100BE0007D848C849B84AA84B984C884DF80EE8051
:100BF000FD800C811B81AA81B981CE0FD11D0FB65A
:100C0000F894DEBF0FBECDBFED010895EE0FFF1FBC
:100C10000590F491E02D09940F931F93CF93DF93E8
:100C20008230910510F482E090E0E091CA01F091E9
:100C3000CB0130E020E0B0E0A0E0309799F421153E
:100C4000310509F44AC0281B390B24303105D8F589
:100C50008A819B816115710589F1FB0193838283F0
:100C6000FE0111C04081518102811381481759074B
:100C7000E0F04817590799F4109761F012960C9319
:100C8000129713961C933296CF01DF91CF911F914B
:100C90000F9108950093CA011093CB01F4CF211551
:100CA000310551F04217530738F0A901DB019A01D1
:100CB000BD01DF01F801C1CFEF01F9CF9093CB0166
:100CC0008093CA01CDCFFE01E20FF31F8193919370
:100CD0002250310939832883D7CF2091C801309120
:100CE000C901232B41F4209102013091030130937B
:100CF000C9012093C8012091000130910101211503
:100D0000310541F42DB73EB74091040150910501E2
:100D1000241B350BE091C801F091C901E217F307DC
:100D2000A0F42E1B3F0B2817390778F0AC014E5F5B
:100D30005F4F2417350748F04E0F5F1F5093C901CE
:100D40004093C801819391939FCFF0E0E0E09CCF66
:100D5000CF93DF930097E9F0FC0132971382128260
:100D6000A091CA01B091CB01ED0130E020E01097D5
:100D7000A1F420813181820F931F2091C80130910D
:100D8000C9012817390709F061C0F093C901E09340
:100D9000C801DF91CF910895EA01CE17DF07E8F58A
:100DA0004A815B819E0141155105B1F7E901FB8341
:100DB000EA8349915991C40FD51FEC17FD0761F4DF
:100DC000808191810296840F951FE9019983888320
:100DD000828193819B838A83F0E0E0E012968D917B
:100DE0009C9113970097B9F52D913C911197CD01E6
:100DF0000296820F931F2091C8013091C9012817D4
:100E0000390739F6309751F51092CB011092CA018B
:100E1000B093C901A093C801BCCFD383C2834081E2
:100E20005181840F951FC817D90761F44E5F5F4F3A
:100E300088819981480F591F518340838A819B8102
:100E4000938382832115310509F0B0CFF093CB0154
:100E5000E093CA019ECFFD01DC01C0CF1382128254
:100E6000D7CFB0E0A0E0E7E3F7E00C94D1058C0128
:100E7000009751F4CB010E940C068C01C801CDB73C
:100E8000DEB7E0E10C94ED05FC01E60FF71F9C01D5
:100E900022503109E217F30708F49DC0D901CD9122
:100EA000DC911197C617D70798F0C530D10530F3FC
:100EB000CE0104978617970708F3C61BD70B229716
:100EC000C193D1936D937C93CF010E94A806D6CF96
:100ED0005B01AC1ABD0A4C018C0E9D1EA091CA018B
:100EE000B091CB01512C412CF12CE12C109731F514
:100EF0008091C8019091C9018815990509F05CC0DD
:100F00004616570608F058C08091000190910101E3
:100F1000009741F48DB79EB74091040150910501AF
:100F2000841B950BE817F90708F055C0F093C90129
:100F3000E093C801F90171836083A0CF8D919C91EA
:100F4000119712966C90129713967C901397A81590
:100F5000B90559F56C0142E0C40ED11CCA14DB047A
:100F600020F1AC014A195B09DA011296159780F05D
:100F70006282738251834083D9016D937C93E11423
:100F8000F10471F0D7011396FC93EE93129776CF8C
:100F900022968C0F9D1FF90191838083F301EFCF7F
:100FA000F093CB01E093CA0169CF4816590608F4C3
:100FB0002C017D01D3019ACFCB010E940C067C014C
:100FC000009749F0AE01B8010E94EE07C8010E94E7
:100FD000A806870153CF10E000E050CFFB01DC01F1
:100FE00002C001900D9241505040D8F70895FB0186
:100FF000DC0101900D920020E1F7089510E0CDE5AD
:10100000D0E004C0FE010E9406062196CE35D1072D
:10101000C9F7F894FFCF0000CC0180000000000069
:101020003E019E00CB008B01FC00DA00EE000000C8
:107E0000112484B714BE81FFF0D085E080938100F7
:107E100082E08093C00088E18093C10086E0809377
:107E2000C20080E18093C4008EE0C9D0259A86E02C
:107E300020E33CEF91E0309385002093840096BBD3
:107E4000B09BFECF1D9AA8958150A9F7CC24DD24C4
:107E500088248394B5E0AB2EA1E19A2EF3E0BF2EE7
:107E6000A2D0813461F49FD0082FAFD0023811F036
:107E7000013811F484E001C083E08DD089C08234E0
:107E800011F484E103C0853419F485E0A6D080C0E4
:107E9000853579F488D0E82EFF2485D0082F10E0AE
:107EA000102F00270E291F29000F111F8ED06801E7
:107EB0006FC0863521F484E090D080E0DECF843638
:107EC00009F040C070D06FD0082F6DD080E0C81688
:107ED00080E7D80618F4F601B7BEE895C0E0D1E017
:107EE00062D089930C17E1F7F0E0CF16F0E7DF06D8
:107EF00018F0F601B7BEE89568D007B600FCFDCFD4
:107F0000A601A0E0B1E02C9130E011968C91119780
:107F100090E0982F8827822B932B1296FA010C0160
:107F200087BEE89511244E5F5F4FF1E0A038BF0790
:107F300051F7F601A7BEE89507B600FCFDCF97BE46
:107F4000E89526C08437B1F42ED02DD0F82E2BD052
:107F50003CD0F601EF2C8F010F5F1F4F84911BD097
:107F6000EA94F801C1F70894C11CD11CFA94CF0C13
:107F7000D11C0EC0853739F428D08EE10CD085E9AC
:107F80000AD08FE07ACF813511F488E018D01DD067
:107F900080E101D065CF982F8091C00085FFFCCF94
:107FA0009093C60008958091C00087FFFCCF809118
:107FB000C00084FD01C0A8958091C6000895E0E648
:107FC000F0E098E1908380830895EDDF803219F02E
:107FD00088E0F5DFFFCF84E1DECF1F93182FE3DFCA
:107FE0001150E9F7F2DF1F91089580E0E8DFEE27F6
:047FF000FF270994CA
:027FFE00040479
:00000001FF
